:100000000C945E010C948F010C948F010C948F0161
:100010000C948F010C948F010C948F010C948F0120
:100020000C948F010C948F010C948F010C948F0110
:100030000C948F010C946D080C948F010C948F011B
:100040000C948F010C948F010C948F010C948F01F0
:100050000C948F010C948F010C948F010C94C307A6
:100060000C948F010C9437080C940D080C948F019C
:100070000C948F010C948F010C948F010C948F01C0
:100080000C948F010C948F010C948F010C948F01B0
:100090000C948F010C948F010C948F010C94910699
:1000A0000C948F010C948F010C948F010C948F0190
:1000B0000C948F010C948F010C948F010C948F0180
:1000C0000C948F010C948F010C948F010C948F0170
:1000D0000C948F010C948F010C948F010C948F0160
:1000E0000C948F017F028202710275027902B902BB
:1000F00086028A029002940298029E02A202A6023E
:10010000B902AC02B002B4020C948A020C948602CA
:100110000C940A030C94B9020C94FB020C94AC02EC
:100120000C9482020C94B0020C9498080C947902FE
:100130000C9426030C9436050C941E030C94DB04DB
:100140000C9475020C9410040C94FA020C94C10ADD
:100150000C944F040C9498020C949E020C94B402DC
:100160000C9494020C9490020C943B040C947F0227
:100170000C945D040C9471050C948F060C94A202EF
:100180000C9437050C94A6020C9456030C9471023F
:100190000C9494040C944A0600000A0B02090C0DFE
:1001A0000E0807030401000000000000000000002A
:1001B000000000000000000000000000000000003F
:1001C00000000000121110000000000000000000FC
:1001D000000000000000000000000000000000001F
:1001E0002100240027002A002D00300033000101E7
:1001F0000000040107010A0100002000230026007E
:1002000029002C002F00320000010000030106012C
:10021000090100002200250028002B002E003100DB
:10022000340002010000050108010B010505050568
:10023000070508080808020202020A0A080804045E
:10024000040401010101010101010303030303038C
:100250000303040707070C0C0C0C0C0C0C0C02021B
:10026000020206060606060606060B0B0B0B0B0B18
:100270000B0B0102102020080810204010204080A5
:10028000020102010804020101020408102040805A
:1002900080402010080402018004020180402010E8
:1002A0000804020108040201010204081020408031
:1002B00001020408102040809808C10A11241FBEC2
:1002C000CFEFD1E2DEBFCDBF00E00CBF12E0A0E077
:1002D000B2E0E0E3FAE100E00BBF02C007900D924C
:1002E000A439B107D9F724E0A4E9B2E001C01D9216
:1002F000AC32B207E1F711E0CDE5D1E000E006C095
:1003000021970109802FFE010E94BD0BCC35D1073A
:1003100080E00807A9F70E943D090C94060D0C9493
:10032000000090E0FC01EE58FD4F2491FC01E45DDB
:10033000FD4F8491882399F090E0880F991FFC016C
:10034000E252FE4FA591B491FC01EE5EFD4F859106
:1003500094918FB7F894EC91E22BEC938FBF0895B2
:10036000382F2091560390915503213208F049C04F
:10037000809132038111FCCF42E0409332033093ED
:1003800031033FEF3093300310922F0320932E035D
:10039000A5E3B3E04EE053E0FA013E2F341B3217E1
:1003A00018F43D913193F9CF10920D0320910D0374
:1003B000990F922B90930D0390910C03913061F45F
:1003C00010920C0390910D039093BB009091BC0090
:1003D00093FDF8CF95EC01C095EE9093BC00909101
:1003E00032039230E1F3909130039F3F79F0809196
:1003F0003003803241F080913003803331F084E06B
:1004000005C081E003C082E001C083E010923403A4
:100410001092560310923303089590913203911174
:10042000FCCF91E090933203909331032FEF209310
:10043000300310922F03260F20932E0390930D0369
:1004400090910D03880F892B80930D0380910C03ED
:10045000813061F410920C0380910D038093BB00F6
:100460008091BC0083FDF8CF85EC01C085EE8093C0
:10047000BC00809132038130E1F380912F03861715
:1004800010F460912F03AEE0B3E02CEE32E0F901FE
:100490008E2F821B861718F48D918193F9CF862FAA
:1004A000089590E0FC01E856FE4F4491FC01EE589F
:1004B000FD4F2491FC01E45DFD4F9491992309F4D3
:1004C00066C0442309F455C050E0FA013197E23187
:1004D000F10508F04EC08827EE58FF4F8F4F0C945F
:1004E000BD0B809180008F7707C0809180008F7D49
:1004F00003C080918000877F809380003AC084B5DC
:100500008F7702C084B58F7D84BD33C08091B000E9
:100510008F7703C08091B0008F7D8093B00029C099
:10052000809190008F7707C0809190008F7D03C0ED
:1005300080919000877F809390001BC08091A000E5
:100540008F7707C08091A0008F7D03C08091A000AD
:10055000877F8093A0000DC0809120018F7707C016
:10056000809120018F7D03C080912001877F80933F
:100570002001E92FF0E0EE0FFF1FEE5EFD4FA59189
:10058000B4918FB7F894EC912E2B2C938FBF0895D4
:1005900085ED8093BC008091BC0084FDFCCF10925F
:1005A000320308954091C502262F30E0240F311DFB
:1005B00021323105DCF4209132032430C9F4FC01EE
:1005C00080E090E0861758F43091C5022191DC015B
:1005D000AD55BD4FA30FB11D2C930196F3CF809164
:1005E000C502680F6093C50280E0089581E0089518
:1005F00082E008950895E091EB028091EA02E81705
:1006000030F4F0E0E451FD4F808190E008958FEFE9
:100610009FEF08959091EB028091EA02981750F4B1
:10062000E92FF0E0E451FD4F208130E09F5F90938F
:10063000EB0202C02FEF3FEFC90108958091EA025B
:1006400090E02091EB02821B91090895CF92DF92F6
:10065000EF92FF920F931F93CF93DF937C01262F8E
:10066000972F8A0180913303882391F0C62FD72FCB
:100670006E01C40ED51ECC15DD0571F06991D70150
:10068000ED91FC910190F081E02DC7011995F3CF18
:10069000642F822F0E94D202C801DF91CF911F9157
:1006A0000F91FF90EF90DF90CF900895CF93DF935D
:1006B0001F92CDB7DEB76983209133032223D1F097
:1006C00020915603203240F021E030E0FC013383DA
:1006D000228380E090E015C080913403E82FF0E0A1
:1006E000EB5CFC4F998190838F5F80933403809300
:1006F000560305C061E0CE0101960E94D20281E05E
:1007000090E00F90DF91CF910895CF93C62F9091F5
:10071000150421E020933303909355031092340382
:1007200010925603682F87E593E00E9456036C2FC2
:1007300087E593E00E94560381E00E94B00181E0CA
:10074000CF9108953FB7F89480919F029091A002B5
:10075000A091A102B091A20226B5A89B05C02F3F8F
:1007600019F00196A11DB11D3FBFBA2FA92F982FD7
:100770008827820F911DA11DB11DBC01CD0142E052
:10078000660F771F881F991F4A95D1F708958F929A
:100790009F92AF92BF92CF92DF92EF92FF926B0146
:1007A0007C010E94A2034B015C01C114D104E1044D
:1007B000F104F1F00E94A203DC01CB018819990930
:1007C000AA09BB09883E9340A105B10570F321E059
:1007D000C21AD108E108F10888EE880E83E0981E5D
:1007E000A11CB11CC114D104E104F10419F7DDCF3F
:1007F000FF90EF90DF90CF90BF90AF909F908F9041
:100800000895E2E1F4E080879187682F8DE390E01E
:100810000E9485036EE170E080E090E00C94C703D5
:10082000CF92DF92EF92FF920F931F93CF93DF93BC
:100830006C017A018B01C0E0D0E0CE15DF0589F0B4
:10084000D8016D918D01D601ED91FC910190F0815F
:10085000E02DC6011995892B11F47E0102C0219665
:10086000ECCFC701DF91CF911F910F91FF90EF90D7
:10087000DF90CF900895FC01918D828D981761F0E3
:10088000828DDF01A80FB11D5D968C91928D9F5FC7
:100890009F73928F90E008958FEF9FEF0895FC0172
:1008A000918D828D981731F0828DE80FF11D858D25
:1008B00090E008958FEF9FEF0895FC01918D228DB8
:1008C000892F90E0805C9F4F821B91098F7399273D
:1008D000089583E693E00E945D0421E0892B09F4EA
:1008E00020E0822F0895FC01848DDF01A80FB11D47
:1008F000A35ABF4F2C91848D90E001968F73992756
:10090000848FA689B7892C93A089B1898C91806442
:100910008C93938D848D981306C00288F389E02D03
:1009200080818F7D80830895EF92FF920F931F93B4
:10093000CF93DF93EC0181E0888F9B8D8C8D981392
:1009400005C0E889F989808185FD24C0F62E0B8DCC
:1009500010E00F5F1F4F0F731127E02E8C8DE812F0
:100960000CC00FB607FCFACFE889F989808185FFB2
:10097000F5CFCE010E947304F1CF8B8DFE01E80FFD
:10098000F11DE35AFF4FF0820B8FEA89FB898081CA
:10099000806207C0EE89FF896083E889F9898081D8
:1009A0008064808381E090E0DF91CF911F910F916F
:1009B000FF90EF900895CF93DF93EC01888D88230B
:1009C000C9F0EA89FB89808185FD05C0A889B989BC
:1009D0008C9186FD0FC00FB607FCF5CF808185FF97
:1009E000F2CFA889B9898C9185FFEDCFCE010E9405
:1009F0007304E7CFDF91CF91089580E090E0892BD9
:100A000021F00E946904811125C080E090E0892BCB
:100A100041F080E090E0892B21F00E9400008111DC
:100A20001CC080E090E0892B41F080E090E0892BB1
:100A300021F00E940000811113C080E090E0892B1A
:100A4000A1F080E090E0892B81F00E9400008111EC
:100A50000AC008950E940000D8CF0E940000E1CF94
:100A60000E940000EACF0C940000089508950895B4
:100A7000009769F0FC0101900020E9F73197AF0180
:100A8000481B590BBC0183E693E00C94100480E0F2
:100A900090E00895CF93DF93C2E1D4E08B8191E0A1
:100AA00090933303809355031092340310925603AE
:100AB00060E087E593E00E94560381E00E94B00168
:100AC00061E08B810E940D021092EB028093EA029A
:100AD00087E593E00E940A03DF91CF9108950E9479
:100AE000F20C8F929F92AF92BF92CF92DF92EF92D1
:100AF000FF920F931F93CF93DF93CDB7DEB762972B
:100B00000FB6F894DEBF0FBECDBF6C018B0184E23F
:100B1000DB011D928A95E9F784E290E0A0E0B0E065
:100B2000FB0180839183A283B383F6018481958145
:100B3000A681B781FB0184839583A683B78383E075
:100B400090E0A0E0B0E080879187A287B3872FB7BD
:100B5000F89480919B0290919C02A0919D02B0918B
:100B60009E022FBF808B918BA28BB38BFE0131969F
:100B70008CE0DF011D928A95E9F77E01BDE0EB0E66
:100B8000F11C86E0F70111928A95E9F7D6011396D8
:100B90008C9191E09093330380935503109234032A
:100BA000109256036AE187E593E00E94560381E0C4
:100BB0000E94B00166E0F60183810E940D0210924E
:100BC000EB028093EA0236E0D32EDE0C87E593E059
:100BD0000E940A03D7018D937D01DA12F7CF6E854B
:100BE00070E0762F66278D85682B072E000C880B0A
:100BF000990B0E94C40A20E030E040E85DE30E94C7
:100C0000FF0A4B015C01688970E0762F66278F85AB
:100C1000682B072E000C880B990B0E94C40A20E059
:100C200030E040E85DE30E94FF0A6B017C018A89A5
:100C300090E0982F88272989822BBC01990F880B77
:100C4000990B0E94C40A20E030E040E85DE30E9476
:100C5000FF0AF801848A958AA68AB78AC08ED18E47
:100C6000E28EF38E648F758F868F978F81E0629608
:100C70000FB6F894DEBF0FBECDBFDF91CF911F91AD
:100C80000F91FF90EF90DF90CF90BF90AF909F902B
:100C90008F9008950F931F93CF93DF938C01EB01F7
:100CA00088E2FB0111928A95E9F74BE050E064E39A
:100CB00072E0CE010E94F70C1B8681E090E0A0E07C
:100CC000B0E08C879D87AE87BF87F80184819581CE
:100CD000A681B781888B998BAA8BBB8B83E090E030
:100CE000A0E0B0E08C8B9D8BAE8BBF8B1CA21DA2B5
:100CF0001EA21FA2188E198E1A8E1B8E1C8E1D8E80
:100D00001E8E1F8E8AE097EDA3E2BCE388A399A311
:100D1000AAA3BBA3DF91CF911F910F9108950C94CB
:100D20005A0C1F920F920FB60F9211240BB60F920E
:100D30002F933F934F935F936F937F938F939F93E3
:100D4000AF93BF93EF93FF938091B900887F803674
:100D500009F49CC068F5883209F45BC090F48031D6
:100D600009F454C038F4882309F4F6C0883009F433
:100D70004DC0F6C0883109F44CC0803209F45DC022
:100D8000EFC0803409F468C048F4803309F455C0DA
:100D9000883309F0E5C080933003D8C0803509F46A
:100DA0004FC0883509F45DC0883409F0D9C0D6C079
:100DB000883909F4C7C0A8F4883709F467C038F443
:100DC000883609F463C0803709F460C0C9C0883828
:100DD00009F4B8C0803909F45FC0803809F0C0C098
:100DE0005BC0803B09F486C038F4803A09F466C0E1
:100DF000883A09F47FC0B4C0803C09F4A7C0883C9D
:100E000009F4A4C0883B09F48AC0AAC080910D03EC
:100E100010C090912F0380912E03981770F5E091E8
:100E20002F0381E08E0F80932F03F0E0E25FFC4FF1
:100E300080818093BB0085EC86C0809330038EC098
:100E4000E0912F0381E08E0F80932F038091BB00F0
:100E5000F0E0E25FFC4F808390912F0380912E039E
:100E60006EC0E0912F0381E08E0F80932F0380915D
:100E7000BB00F0E0E25FFC4F808380913103811181
:100E80006DC081E080930C0384EA61C083E08093AD
:100E900032031092E902CFCF8091E902803208F04C
:100EA00051C0E091E90281E08E0F8093E9028091C8
:100EB000BB00F0E0E753FD4F8083BDCF85EC80930E
:100EC000BC00109232038091E902803230F4E0914C
:100ED000E902F0E0E753FD4F10826091E90270E013
:100EE000E091C702F091C80289EC92E01995109246
:100EF000E90236C084E0809332031092C602109259
:100F0000C502E091C302F091C40219958091C50217
:100F1000811105C081E08093C5021092A302E09187
:100F2000C60281E08E0F8093C602F0E0ED55FD4FC2
:100F300080818093BB009091C6028091C502981772
:100F400008F479CF85E88093BC000AC085EC8093D3
:100F5000BC001092320304C0109230030E94C802F9
:100F6000FF91EF91BF91AF919F918F917F916F9181
:100F70005F914F913F912F910F900BBE0F900FBE3D
:100F80000F901F9018951F920F920FB60F92112479
:100F90002F933F938F939F93AF93BF9380919B0227
:100FA00090919C02A0919D02B0919E0230919A0274
:100FB00023E0230F2D3720F40196A11DB11D05C09C
:100FC00026E8230F0296A11DB11D20939A0280935B
:100FD0009B0290939C02A0939D02B0939E028091ED
:100FE0009F029091A002A091A102B091A20201964D
:100FF000A11DB11D80939F029093A002A093A10216
:10100000B093A202BF91AF919F918F913F912F9189
:101010000F900FBE0F901F9018951F920F920FB652
:101020000F9211240BB60F922F933F934F935F9320
:101030006F937F938F939F93AF93BF93EF93FF93A0
:1010400083E693E00E947304FF91EF91BF91AF910B
:101050009F918F917F916F915F914F913F912F91D0
:101060000F900BBE0F900FBE0F901F9018951F9200
:101070000F920FB60F9211240BB60F922F938F93EE
:101080009F93EF93FF93E0917303F091740380813A
:10109000E0917903F0917A0382FD12C090818091F2
:1010A0007C038F5F8F7320917D03821751F0E09155
:1010B0007C03F0E0ED59FC4F958F80937C0301C0D9
:1010C0008081FF91EF919F918F912F910F900BBE97
:1010D0000F900FBE0F901F9018951F920F920FB692
:1010E0000F9211240BB60F922F933F934F935F9360
:1010F0006F937F938F939F93AF93BF93EF93FF93E0
:10110000E0919802F09199021995FF91EF91BF91AA
:10111000AF919F918F917F916F915F914F913F918F
:101120002F910F900BBE0F900FBE0F901F90189530
:10113000E7E5F3E01382128288EE93E0A0E0B0E0EE
:1011400084839583A683B7832AE032E031832083AA
:10115000E3E6F3E01382128284839583A683B78348
:101160008AE192E09183808385EC90E09587848783
:1011700084EC90E09787868780EC90E0918B808B61
:1011800081EC90E0938B828B82EC90E0958B848B4A
:1011900086EC90E0978B868B118E128E138E148EB8
:1011A000E2E2F4E086E090E09183808387E090E0E3
:1011B000938382838EE090E095838483ECE1F4E076
:1011C0008BE090E0918380838DE090E09383828335
:1011D0008CE090E095838483E2E1F4E08AE292E09F
:1011E0009183808387E390E0A0E0B0E084839583DF
:1011F000A683B78388E28383E6E7F2E0E491A0E088
:10120000B4E01496EC931497E5E7F2E0E4911596B8
:10121000EC93159780E392E0FC012491E22FF0E03B
:10122000EE0FFF1FEE5EFD4F2591349117963C9314
:101230002E931697EFE2F2E0E491F0E0EE0FFF1F3D
:10124000E850FE4F2591349119963C932E931897B0
:10125000FC018491E82FF0E0EE0FFF1FE252FE4FF9
:10126000859194911B969C938E931A978BE694E6A6
:101270001D969C938E931C970895789484B58260F4
:1012800084BD84B5816084BD85B5826085BD85B52A
:10129000816085BD80916E00816080936E001092A8
:1012A0008100809181008260809381008091810023
:1012B00081608093810080918000816080938000B4
:1012C0008091B10084608093B1008091B000816012
:1012D0008093B00080919100826080939100809112
:1012E0009100816080939100809190008160809353
:1012F00090008091A10082608093A1008091A10064
:1013000081608093A1008091A00081608093A00003
:10131000809121018260809321018091210181606F
:101320008093210180912001816080932001809130
:101330007A00846080937A0080917A008260809342
:101340007A0080917A00816080937A0080917A009F
:10135000806880937A001092C100E0917303F0914D
:10136000740382E08083E0916F03F0917003108238
:10137000E0917103F09172038FEC808310927B03F4
:10138000E0917703F091780386E08083E091750324
:10139000F0917603808180618083E0917503F09104
:1013A0007603808188608083E0917503F0917603F5
:1013B000808180688083E0917503F091760380815D
:1013C0008F7D80838BE392E00E94380583E592E075
:1013D0000E94380585E592E00E94380583E592E099
:1013E0000E9438051092EB021092EA021092340328
:1013F000109256031092320381E0809331031092D1
:101400000C0384E10E94510285E10E945102809107
:10141000B9008E7F8093B9008091B9008D7F809351
:10142000B90088E48093B80085E48093BC000E94F2
:101430004A05803A51F480E090E00E94010460E2A5
:101440008FE390E00E9485030FC068EE73E080E0B8
:1014500090E00E94C7030E944A05803A61F386E546
:1014600092E00E9438057FC00E944A05803A39F018
:101470006AE070E080E090E00E94C703F5CF62E38D
:1014800070E080E090E00E94C70360E08EE390E0AF
:101490000E9485036AE070E080E090E00E94C7034C
:1014A00060E087E090E00E94850360E08FE390E0D9
:1014B0000E9485036AE070E080E090E00E94C7032C
:1014C0008CE090E00E94010464E170E080E090E034
:1014D0000E94C70368EE73E080E090E00E94C703BB
:1014E000C0911A04D0911B0480E090E00E94010496
:1014F00069E170E080E090E00E94C70360E087E06F
:1015000090E00E94850360E88FE390E00E948503ED
:101510006AE070E080E090E00E94C703CE010E9484
:10152000010464E170E080E090E00E94C70387E07E
:101530000E9491018EE00E94910186E00E9491013B
:101540008DE00E9491018CE00E9491018BE00E944D
:10155000910183E20E94910181E20E9491018FE159
:101560000E94910103C0FFCF0E94FD0483E693E037
:101570000E945D04892BC1F383E693E00E943B0443
:10158000F3CF0895E89409C097FB3EF490958095B9
:10159000709561957F4F8F4F9F4F9923A9F0F92F39
:1015A00096E9BB279395F695879577956795B795B7
:1015B000F111F8CFFAF4BB0F11F460FF1BC06F5F9D
:1015C0007F4F8F4F9F4F16C0882311F096E911C0AF
:1015D000772321F09EE8872F762F05C0662371F0D0
:1015E00096E8862F70E060E02AF09A95660F771FE4
:1015F000881FDAF7880F9695879597F908950E94C6
:10160000120B0C94830B0E94750B38F00E947C0B1C
:1016100020F0952311F00C946C0B0C94720B112498
:101620000C94B70B0E94940B70F3959FC1F3950F28
:1016300050E0551F629FF001729FBB27F00DB11D56
:10164000639FAA27F00DB11DAA1F649F6627B00DE6
:10165000A11D661F829F2227B00DA11D621F739FCF
:10166000B00DA11D621F839FA00D611D221F749FDD
:101670003327A00D611D231F849F600D211D822F24
:10168000762F6A2F11249F5750409AF0F1F088234B
:101690004AF0EE0FFF1FBB1F661F771F881F915078
:1016A0005040A9F79E3F510580F00C946C0B0C94B0
:1016B000B70B5F3FE4F3983ED4F386957795679533
:1016C000B795F795E7959F5FC1F7FE2B880F911DA2
:1016D0009695879597F9089597F99F6780E870E048
:1016E00060E008959FEF80EC089500240A94161698
:1016F000170618060906089500240A941216130600
:10170000140605060895092E0394000C11F488238D
:1017100052F0BB0F40F4BF2B11F460FF04C06F5FA9
:101720007F4F8F4F9F4F089557FD9058440F551F7F
:1017300059F05F3F71F04795880F97FB991F61F053
:101740009F3F79F087950895121613061406551FCA
:10175000F2CF4695F1DF08C0161617061806991F36
:10176000F1CF86957105610508940895E894BB272B
:1017700066277727CB0197F90895EE0FFF1F881F83
:101780008BBF0790F691E02D1994CF93DF938230B1
:10179000910510F482E090E0E0912A04F0912B048E
:1017A00020E030E0C0E0D0E0309711F1408151817D
:1017B00048175907C0F04817590761F4828193818F
:1017C000209719F09B838A832BC090932B048093DE
:1017D0002A0426C02115310519F04217530718F4C1
:1017E0009A01BE01DF01EF010280F381E02DDCCF21
:1017F0002115310509F1281B390B2430310590F4EE
:1018000012968D919C9113976115710521F0FB0142
:101810009383828304C090932B0480932A04FD0158
:10182000329644C0FD01E20FF31F81939193225041
:1018300031092D933C933AC020912804309129041A
:10184000232B41F4209102023091030230932904AA
:1018500020932804209100023091010221153105C6
:1018600041F42DB73EB74091040250910502241B6C
:10187000350BE0912804F0912904E217F307A0F456
:101880002E1B3F0B2817390778F0AC014E5F5F4FD6
:101890002417350748F04E0F5F1F509329044093DB
:1018A00028048193919302C0E0E0F0E0CF01DF9142
:1018B000CF9108950F931F93CF93DF93009709F46F
:1018C0008CC0FC0132971382128200912A0410917D
:1018D0002B040115110581F420813181820F931FA2
:1018E00020912804309129042817390779F5F093BD
:1018F0002904E093280471C0D80140E050E0AE17FD
:10190000BF0750F412962D913C911397AD0121150C
:10191000310509F1D901F3CF9D01DA013383228327
:1019200060817181860F971F8217930769F4EC011C
:1019300028813981260F371F2E5F3F4F3183208347
:101940008A819B8193838283452B29F4F0932B0416
:10195000E0932A0442C01396FC93EE931297ED0194
:10196000499159919E01240F351FE217F30771F435
:1019700080819181840F951F029611969C938E937E
:101980008281938113969C938E931297E0E0F0E00E
:10199000D80112968D919C911397009719F0F80138
:1019A0008C01F6CF8D919C9198012E5F3F4F820F55
:1019B000931F20912804309129042817390769F4CE
:1019C000309729F410922B0410922A0402C013823B
:1019D00012821093290400932804DF91CF911F9164
:1019E0000F91089581E090E0F8940C94060DFB01AE
:1019F000DC014150504048F001900D920020C9F7A1
:101A000001C01D9241505040E0F7089511E0CDE52E
:101A1000D1E000E006C0802FFE010E94BD0B2196A0
:101A2000011DCE35D10780E00807A9F7F894FFCF54
:101A300000002C04800000000000560326031E0353
:101A40000A03FB02FA0200000000940410045D0483
:101A50003B044F04DB040000000036058F06370509
:101A600071054A06424E4F303535004F7269656E3A
:101A7000746174696F6E2053656E736F7220546564
:101A80007374000D0A004F6F6F70732C206E6F20FF
:101A9000424E4F303535206465746563746564204B
:101AA0002E2E2E20436865636B20796F7572207728
:101AB0006972696E67206F72204932432041444445
:041AC00052210000AF
:00000001FF
