:100000000C9479010C94AA010C94AA010C94AA01F5
:100010000C94AA010C94AA010C94AA010C94AA01B4
:100020000C94AA010C94AA010C94AA010C94AA01A4
:100030000C94AA010C94F0050C94AA010C94AA014A
:100040000C94AA010C94AA010C94AA010C94AA0184
:100050000C94AA010C94AA010C94AA010C944605D4
:100060000C94AA010C94BA050C9490050C94AA0166
:100070000C94AA010C94AA010C94AA010C94AA0154
:100080000C94AA010C94AA010C94AA010C94AA0144
:100090000C94AA010C94AA010C94AA010C94AA0134
:1000A0000C94AA010C94AA010C94AA010C94AA0124
:1000B0000C94AA010C94AA010C94AA010C94AA0114
:1000C0000C94AA010C94AA010C94AA010C94AA0104
:1000D0000C94AA010C94AA010C94AA010C94AA01F4
:1000E0000C94AA01FA01FD01EC01F001F4013402C3
:1000F000010205020B020F02130219021D02210266
:10010000340227022B022F02700275027A02840247
:100110008E0207039802A002A802B202BC02C60225
:10012000D502DF020703E902F302FD020C94A002EC
:100130000C9401020C9475020C94DF020C94FD02E5
:100140000C941D020C9498030C94D5020C94190283
:100150000C9421020C94BC020C9438040C94C6023A
:100160000C9407030C9427020C94F4010C940F02D6
:100170000C94FA010C940B020C9470020C94130270
:100180000C948E020C942F020C946D030C94F302C9
:100190000C94BA030C94E9020C9498020C942B0270
:1001A0000C94AC030C9405020C9484020C94EC01A6
:1001B0000C94F1030C94FD010C947A020C9434021B
:1001C0000C94B2020C94A8020C94F0010C941B063F
:1001D00000000A0B02090C0D0E08070304010000C1
:1001E000000000000000000000000000000000000F
:1001F00000000000000000000000000012111000CC
:1002000000000000000000000000000000000000EE
:1002100000000000000000002100240027002A0048
:100220002D003000330001010000040107010A0124
:10023000000020002300260029002C002F0032009F
:100240000001000003010601090100002200250051
:1002500028002B002E0031003400020100000501AF
:1002600008010B0105050505070508080808020235
:1002700002020A0A08080404040401010101010140
:1002800001010303030303030303040707070C0C23
:100290000C0C0C0C0C0C02020202060606060606EA
:1002A00006060B0B0B0B0B0B0B0B0102102020088F
:1002B00008102040102040800201020108040201C1
:1002C0000102040810204080804020100804020130
:1002D0008004020180402010080402010804020189
:1002E0000102040810204080010204081020408010
:1002F0001B0611241FBECFEFD1E2DEBFCDBF00E051
:100300000CBF12E0A0E0B2E0E0EFFEE000E00BBFC7
:1003100002C007900D92A834B107D9F723E0A8E4F2
:10032000B2E001C01D92A630B207E1F711E0C9E7C3
:10033000D1E000E006C021970109802FFE010E9454
:100340006907C837D10780E00807A9F70E94880627
:100350000C9476070C94000090E0FC01E655FD4FEC
:100360002491FC01EC59FD4F8491882399F090E091
:10037000880F991FFC01EA5EFD4FA591B491FC0125
:10038000E65BFD4F859194918FB7F894EC91E22B49
:10039000EC938FBF0895362F90E0FC01E053FE4FA1
:1003A0004491FC01E655FD4F2491FC01EC59FD4FB1
:1003B0009491992309F46BC0442309F455C050E08B
:1003C000FA013197E231F10508F04EC08827EE5866
:1003D000FF4F8F4F0C946907809180008F7707C083
:1003E000809180008F7D03C080918000877F809303
:1003F00080003AC084B58F7702C084B58F7D84BDFC
:1004000033C08091B0008F7703C08091B0008F7DA2
:100410008093B00029C0809190008F7707C08091B1
:1004200090008F7D03C080919000877F8093900023
:100430001BC08091A0008F7707C08091A0008F7DA6
:1004400003C08091A000877F8093A0000DC08091A1
:1004500020018F7707C0809120018F7D03C080919C
:100460002001877F80932001E92FF0E0EE0FFF1F2E
:10047000E65BFD4FA591B4918FB7F894EC913111E3
:1004800003C020952E2301C02E2B2C938FBF0895DF
:100490001F93CF93DF93182FEB010E94AC0120979D
:1004A00011F460E004C0CF3FD10539F461E0812F41
:1004B000DF91CF911F910C94CB01E12FF0E0E0533D
:1004C000FE4FE4914E2F50E0FA013197E231F105F1
:1004D00008F09DC08827EC57FF4F8F4F0C94690799
:1004E00084B5806884BDC7BD97C084B5806284BD73
:1004F000C8BD92C080918000806880938000D093B6
:100500008900C093880088C08091800080628093B9
:100510008000D0938B00C0938A007EC080918000C1
:10052000886080938000D0938D00C0938C0074C04D
:100530008091B00080688093B000C093B3006CC01D
:100540008091B00080628093B000C093B40064C01A
:1005500080919000806880939000D0939900C09320
:1005600098005AC080919000806280939000D09350
:100570009B00C0939A0050C0809190008860809347
:100580009000D0939D00C0939C0046C08091A00035
:1005900080688093A0008091A0008F7B8093A00052
:1005A000D093A900C093A80037C08091A0008062BA
:1005B0008093A000D093AB00C093AA002DC080917F
:1005C000A00088608093A000D093AD00C093AC00E1
:1005D00023C080912001806880932001D09329015D
:1005E000C093280119C0809120018062809320016E
:1005F000D0932B01C0932A010FC080912001886005
:1006000080932001D0932D01C0932C0105C0C038E8
:10061000D1050CF04BCF45CFDF91CF911F910895BD
:100620003FB7F8948091530290915402A0915502E3
:10063000B091560226B5A89B05C02F3F19F0019630
:10064000A11DB11D3FBFBA2FA92F982F8827820F58
:10065000911DA11DB11DBC01CD0142E0660F771FA8
:10066000881F991F4A95D1F708958F929F92AF9254
:10067000BF92CF92DF92EF92FF920E9410034B0144
:100680005C0180EDC82E87E0D82EE12CF12C0E9471
:100690001003DC01CB0188199909AA09BB09883E1E
:1006A0009340A105B10558F021E0C21AD108E10834
:1006B000F10888EE880E83E0981EA11CB11CC114BD
:1006C000D104E104F10419F7FF90EF90DF90CF908F
:1006D000BF90AF909F908F900895CF92DF92EF924E
:1006E000FF920F931F93CF93DF936C017A018B01DD
:1006F000C0E0D0E0CE15DF0589F0D8016D918D0105
:10070000D601ED91FC910190F081E02DC601199583
:10071000892B11F47E0102C02196ECCFC701DF9135
:10072000CF911F910F91FF90EF90DF90CF900895A0
:10073000FC01918D828D981761F0828DDF01A80FE9
:10074000B11D5D968C91928D9F5F9F73928F90E00B
:1007500008958FEF9FEF0895FC01918D828D98177A
:1007600031F0828DE80FF11D858D90E008958FEFB7
:100770009FEF0895FC01918D228D892F90E0805C80
:100780009F4F821B91098F739927089587E592E007
:100790000E94BA0321E0892B09F420E0822F0895FA
:1007A000FC01848DDF01A80FB11DA35ABF4F2C910E
:1007B000848D90E001968F739927848FA689B789DD
:1007C0002C93A089B1898C9180648C93938D848DB6
:1007D000981306C00288F389E02D80818F7D808385
:1007E0000895EF92FF920F931F93CF93DF93EC0145
:1007F00081E0888F9B8D8C8D981305C0E889F989DD
:10080000808185FD24C0F62E0B8D10E00F5F1F4FF9
:100810000F731127E02E8C8DE8120CC00FB607FC69
:10082000FACFE889F989808185FFF5CFCE010E9452
:10083000D003F1CF8B8DFE01E80FF11DE35AFF4F7E
:10084000F0820B8FEA89FB898081806207C0EE8984
:10085000FF896083E889F98980818064808381E0F1
:1008600090E0DF91CF911F910F91FF90EF9008954D
:10087000CF93DF93EC01888D8823C9F0EA89FB8947
:10088000808185FD05C0A889B9898C9186FD0FC03E
:100890000FB607FCF5CF808185FFF2CFA889B98913
:1008A0008C9185FFEDCFCE010E94D003E7CFDF9181
:1008B000CF91089580E090E0892B21F00E94C6033B
:1008C000811125C080E090E0892B41F080E090E02C
:1008D000892B21F00E94000081111CC080E090E073
:1008E000892B41F080E090E0892B21F00E940000EC
:1008F000811113C080E090E0892BA1F080E090E0AE
:10090000892B81F00E94000081110AC008950E9485
:100910000000D8CF0E940000E1CF0E940000EACF83
:100920000C9400000895009769F0FC0101900020EC
:10093000E9F73197AF01481B590BBC0187E592E0FD
:100940000C946D0380E090E00895CF93DF930E94B4
:100950009304EC018CE192E00E9493048C0F9D1FA4
:10096000DF91CF910895CF93DF93EC0160E088E0B1
:100970000E94CB0160E089E00E94CB0161E08AE047
:100980000E94CB0160E08A810E94CB0160E08C81F3
:100990000E94CB018FE192E00E94A50460E070E02C
:1009A0008881DF91CF910C9448020F931F93CF93CE
:1009B000DF93CDB7DEB7A1970FB6F894DEBF0FBEB9
:1009C000CDBF19A280E388A382E38F8FCE014F961B
:1009D0000E9493048C018CE192E00E949304800FAA
:1009E000911FA1960FB6F894DEBF0FBECDBFDF9169
:1009F000CF911F910F910895CF93DF93EC0161E0A8
:100A000088E00E94CB0160E089E00E94CB0160E0B9
:100A10008AE00E94CB0161E08A810E94CB0186E3DB
:100A200092E00E94A50460E08C810E94CB0164E109
:100A300070E088810E944802DF91CF910C94D50428
:100A4000CF93DF93EC0160E088E00E94CB0161E08E
:100A500089E00E94CB0160E08AE00E94CB0160E067
:100A60008A810E94CB0161E08C810E94CB018FE3DF
:100A700092E00E94A50464E170E088810E9448022F
:100A8000DF91CF910C94D5040E9471071F920F92B1
:100A90000FB60F9211242F933F938F939F93AF9391
:100AA000BF9380914F0290915002A0915102B0915A
:100AB000520230914E0223E0230F2D3720F401968D
:100AC000A11DB11D05C026E8230F0296A11DB11D71
:100AD00020934E0280934F0290935002A0935102B4
:100AE000B09352028091530290915402A09155020A
:100AF000B09156020196A11DB11D809353029093AF
:100B00005402A0935502B0935602BF91AF919F91AA
:100B10008F913F912F910F900FBE0F901F901895BE
:100B20001F920F920FB60F9211240BB60F922F93B4
:100B30003F934F935F936F937F938F939F93AF9365
:100B4000BF93EF93FF9387E592E00E94D003FF915C
:100B5000EF91BF91AF919F918F917F916F915F9135
:100B60004F913F912F910F900BBE0F900FBE0F90A2
:100B70001F9018951F920F920FB60F9211240BB66B
:100B80000F922F938F939F93EF93FF93E0916702C0
:100B9000F09168028081E0916D02F0916E0282FD19
:100BA00012C09081809170028F5F8F7320917102CB
:100BB000821751F0E0917002F0E0E95AFD4F958FF5
:100BC0008093700201C08081FF91EF919F918F917E
:100BD0002F910F900BBE0F900FBE0F901F90189586
:100BE0001F920F920FB60F9211240BB60F922F93F4
:100BF0003F934F935F936F937F938F939F93AF93A5
:100C0000BF93EF93FF93E0914C02F0914D02199541
:100C1000FF91EF91BF91AF919F918F917F916F91D4
:100C20005F914F913F912F910F900BBE0F900FBE90
:100C30000F901F901895E7E5F2E01382128288EE7C
:100C400093E0A0E0B0E084839583A683B78380E13E
:100C500092E09183808385EC90E09587848784EC93
:100C600090E09787868780EC90E0918B808B81EC79
:100C700090E0938B828B82EC90E0958B848B86EC5A
:100C800090E0978B868B118E128E138E148EEDEA68
:100C9000F2E0E491A4EFB2E01496EC931497ECEA3E
:100CA000F2E0E4911596EC93159787E692E0FC014B
:100CB0002491E22FF0E0EE0FFF1FE65BFD4F259140
:100CC000349117963C932E931697E6E6F2E0E49162
:100CD000F0E0EE0FFF1FE05DFD4F25913491199676
:100CE0003C932E931897FC018491E82FF0E0EE0FCF
:100CF000FF1FEA5EFD4F859194911B969C938E9306
:100D00001A978BE694E61D969C938E931C970895F4
:100D1000789484B5826084BD84B5816084BD85B5D6
:100D2000826085BD85B5816085BD80916E008160E2
:100D300080936E0010928100809181008260809388
:100D4000810080918100816080938100809180008A
:100D50008160809380008091B10084608093B100B5
:100D60008091B00081608093B0008091910082609A
:100D70008093910080919100816080939100809197
:100D800090008160809390008091A10082608093A8
:100D9000A1008091A10081608093A1008091A000BA
:100DA00081608093A0008091210182608093210165
:100DB00080912101816080932101809120018160D7
:100DC0008093200180917A00846080937A008091E2
:100DD0007A00826080937A0080917A0081608093AB
:100DE0007A0080917A00806880937A001092C10026
:100DF000E0916702F091680282E08083E0916302F3
:100E0000F09164021082E0916502F09166028FEC2D
:100E1000808310926F02E0916B02F0916C0286E089
:100E20008083E0916902F0916A0280818061808311
:100E3000E0916902F0916A02808188608083E0918C
:100E40006902F0916A02808180688083E091690282
:100E5000F0916A0280818F7D808387E00E94AC01DF
:100E60008EE00E94AC0186E00E94AC018DE00E9401
:100E7000AC018CE00E94AC018BE00E94AC018AE0E6
:100E80000E94AC0189E00E94AC0188E00E94AC01A4
:100E900086E092E00E94FC0480E092E00E94FC0464
:100EA0000E94350386E092E00E94200580E092E0F7
:100EB0000E9420050E94350386E092E00E94B30460
:100EC00080E092E00E94B3040E9435030E945A041D
:100ED000DFCFEE0FFF1F881F8BBF0790F691E02D2D
:100EE000199481E090E0F8940C947607F894FFCF81
:100EF0000B000D000C00060007000E0000000000B3
:100F0000F1036D03BA039803AC0338040D0A0051D2
:100F1000554945544F2050415241444F2043484188
:100F2000564141414C004144454C414E54450041DD
:080F30005452415353530000D9
:00000001FF
