:100000000C9438010C9469010C9469010C946901F9
:100010000C9469010C9469010C9469010C946901B8
:100020000C9469010C9469010C9469010C946901A8
:100030000C9469010C9469010C9469010C94690198
:100040000C9469010C94AE050C9469010C9469013F
:100050000C9469010C9469010C9469010C947A0464
:100060000C9469010C94EE040C94C4040C94690182
:100070000C9469010C9469010C9469010C94690158
:100080000C9480050C9469010C9469010C9469012D
:100090000C9469010C9469010C9469010C94690138
:1000A0000C9469010C9469010C9452050C9469013B
:1000B0000C9469010C9469010C9469010C94240559
:1000C0000C9469010C9469010C9469010C94690108
:1000D0000C9469010C9469010C9469010C946901F8
:1000E0000C94690118021B020A020E02120252024B
:1000F0001F02230229022D02310237023B023F0276
:100100005202450249024D020C941F020C94560300
:100110000C940F030C94DC050C9418020C942D0223
:100120000C943F020C948B020C9429020C94230231
:100130000C9452020C940A020C94D8020C941202F1
:100140000C9437020C941B020C9449020C940E027E
:100150000C94CA020C943B020C9445020C9431029C
:100160000C944D020C94B6020000210024002700DC
:100170002A002D00300033000101000004010701B6
:100180000A0100002200250028002B002E0031006B
:10019000340002010000050108010B0105050505F9
:1001A000070508080808020202020A0A08080404EF
:1001B000040401010101010101010303030303031D
:1001C0000303040707070C0C0C0C0C0C0C0C0202AC
:1001D000020206060606060606060B0B0B0B0B0BA9
:1001E0000B0B010210202008081020401020408036
:1001F00002010201080402010102040810204080EB
:100200008040201008040201800402018040201078
:1002100008040201080402010102040810204080C1
:10022000010204081020408000000A0B02090C0D96
:100230000E08070304010000000000000000000099
:1002400000000000000000000000000000000000AE
:10025000000000001211100000000000000000006B
:100260000000000000000000000000000000DC05AD
:1002700011241FBECFEFD1E2DEBFCDBF00E00CBF27
:1002800012E0A0E0B2E0EEECF0E100E00BBF02C053
:1002900007900D92A231B107D9F723E0A2E1B2E0B5
:1002A00001C01D92A035B207E1F711E0C8E3D1E02B
:1002B00000E006C021970109802FFE010E94580826
:1002C000C733D10780E00807A9F70E943A060C94CB
:1002D00065080C9400002FB7F89480911B02909150
:1002E0001C02A0911D02B0911E022FBF8093270215
:1002F00090932802A0932902B0932A02E0911F0252
:10030000F09120020084F185E02D8FE192E01995B3
:1003100097FF26C02FB7F89480911B0290911C0282
:10032000A0911D02B0911E022FBF40912702509153
:1003300028026091290270912A02841B950BA60B5A
:10034000B70B4091230250912402609125027091D5
:10035000260284179507A607B70780F28FEF9FEF55
:100360000895AC0190914D03903390F580914E0328
:1003700028E830E0281B310987FD3395220F331F11
:10038000220F331F4217530784F080914F0328E553
:1003900032E0281B310987FD3395220F331F220FCE
:1003A000331F421753070CF49A0122503109220FD0
:1003B000331F4FB7F894892F90E0FC01EE0FFF1F19
:1003C0008E0F9F1FFC01E454FD4F328321834FBFEA
:1003D0000895362F90E0FC01E85DFD4F4491FC014B
:1003E000EE51FE4F2491FC01E456FE4F9491992367
:1003F00009F46BC0442309F455C050E0FA01319769
:10040000E231F10508F04EC08827EE58FF4F8F4FBC
:100410000C945808809180008F7707C080918000ED
:100420008F7D03C080918000877F809380003AC0D9
:1004300084B58F7702C084B58F7D84BD33C0809131
:10044000B0008F7703C08091B0008F7D8093B000A3
:1004500029C0809190008F7707C0809190008F7D98
:1004600003C080919000877F809390001BC0809193
:10047000A0008F7707C08091A0008F7D03C080917E
:10048000A000877F8093A0000DC0809120018F770E
:1004900007C0809120018F7D03C080912001877F5C
:1004A00080932001E92FF0E0EE0FFF1FEE57FE4F83
:1004B000A591B4918FB7F894EC91311103C02095B8
:1004C0002E2301C02E2B2C938FBF08953FB7F89495
:1004D0008091170290911802A0911902B0911A020E
:1004E00026B5A89B05C02F3F19F00196A11DB11D8F
:1004F0003FBFBA2FA92F982F8827820F911DA11DCA
:10050000B11DBC01CD0142E0660F771F881F991F06
:100510004A95D1F70895CF92DF92EF92FF920F9311
:100520001F93CF93DF936C017A018B01C0E0D0E081
:10053000CE15DF0589F0D8016D918D01D601ED91C1
:10054000FC910190F081E02DC6011995892B11F4E1
:100550007E0102C02196ECCFC701DF91CF911F91A0
:100560000F91FF90EF90DF90CF900895FC01918D57
:10057000828D981761F0828DDF01A80FB11D5D9605
:100580008C91928D9F5F9F73928F90E008958FEF73
:100590009FEF0895FC01918D828D981731F0828D27
:1005A000E80FF11D858D90E008958FEF9FEF08957E
:1005B000FC01918D228D892F90E0805C9F4F821BE2
:1005C00091098F73992708958FE192E00E94D802D4
:1005D00021E0892B09F420E0822F0895FC01848D0D
:1005E000DF01A80FB11DA35ABF4F2C91848D90E05D
:1005F00001968F739927848FA689B7892C93A08938
:10060000B1898C9180648C93938D848D981306C0EE
:100610000288F389E02D80818F7D80830895EF9299
:10062000FF920F931F93CF93DF93EC0181E0888FAC
:100630009B8D8C8D981305C0E889F989808185FD93
:1006400024C0F62E0B8D10E00F5F1F4F0F73112784
:10065000E02E8C8DE8120CC00FB607FCFACFE889AB
:10066000F989808185FFF5CFCE010E94EE02F1CF9E
:100670008B8DFE01E80FF11DE35AFF4FF0820B8FC7
:10068000EA89FB898081806207C0EE89FF896083E7
:10069000E889F98980818064808381E090E0DF913E
:1006A000CF911F910F91FF90EF900895CF93DF931B
:1006B000EC01888D8823C9F0EA89FB89808185FD5A
:1006C00005C0A889B9898C9186FD0FC00FB607FCBB
:1006D000F5CF808185FFF2CFA889B9898C9185FFFC
:1006E000EDCFCE010E94EE02E7CFDF91CF910895CA
:1006F00080E090E0892B21F00E94E402811125C066
:1007000080E090E0892B41F080E090E0892B21F09F
:100710000E94000081111CC080E090E0892B41F014
:1007200080E090E0892B21F00E940000811113C02D
:1007300080E090E0892BA1F080E090E0892B81F0AF
:100740000E94000081110AC008950E940000D8CFC5
:100750000E940000E1CF0E940000EACF0C9400004C
:100760000895CF92DF92EF92FF920F931F93CF9352
:10077000DF936C018B017A01EC01CE5EDD4F888145
:1007800087FF04C0FB011182108224C08CE08C9D85
:1007900090018D9D300D11248881A901480F511DB4
:1007A00087FD5A9580914C0390E04817590794F4BF
:1007B0008881A901480F511D87FD5A95CA01FA0188
:1007C000EE0FFF1F8E0F9F1FFC01E454FD4F808131
:1007D00086FD19C088818F5F88838CE08C9D900195
:1007E0008D9D300D11248881A901480F511D87FD71
:1007F0005A9580914C0390E048175907BCF48881C2
:100800008C3044F113C08881280F311D87FD3A9543
:10081000F901EE0FFF1F2E0F3F1FF901E454FD4FAA
:10082000808160E08F730E94E901D4CFF80180815C
:100830009181049680349C4918F480E49CE904C0BA
:10084000F801808191810496F701918380838FEF75
:10085000888345C0F801408151818881B901680FC2
:10086000711D87FD7A95CB01FB01EE0FFF1F8E0FE7
:100870009F1FFC01E454FD4F81819281840F951FDD
:10088000F701918380838881A901480F511D87FD5D
:100890005A95CA01FA01EE0FFF1F8E0F9F1FFC0130
:1008A000E454FD4F808186FF1AC08881280F311DD6
:1008B00087FD3A95F901EE0FFF1F2E0F3F1FF9013B
:1008C000E454FD4F808161E08F73DF91CF911F91E0
:1008D0000F91FF90EF90DF90CF900C94E901DF91A2
:1008E000CF911F910F91FF90EF90DF90CF900895DF
:1008F0000E9460081F920F920FB60F9211242F933F
:100900003F938F939F93AF93BF9380911B029091DE
:100910001C02A0911D02B0911E023091160223E02C
:10092000230F2D3720F40196A11DB11D05C026E827
:10093000230F0296A11DB11D2093160280931B0266
:1009400090931C02A0931D02B0931E028091170287
:1009500090911802A0911902B0911A020196A11D5E
:10096000B11D8093170290931802A0931902B093BF
:100970001A02BF91AF919F918F913F912F910F904C
:100980000FBE0F901F9018951F920F920FB60F92E7
:1009900011240BB60F922F933F934F935F936F9356
:1009A0007F938F939F93AF93BF93EF93FF938FE1C9
:1009B00092E00E94EE02FF91EF91BF91AF919F9163
:1009C0008F917F916F915F914F913F912F910F90F8
:1009D0000BBE0F900FBE0F901F9018951F920F9295
:1009E0000FB60F9211240BB60F922F938F939F93F4
:1009F000EF93FF93E0912F02F09130028081E0911C
:100A00003502F091360282FD12C090818091380249
:100A10008F5F8F7320913902821751F0E091380275
:100A2000F0E0E15EFD4F958F8093380201C0808138
:100A3000FF91EF919F918F912F910F900BBE0F908F
:100A40000FBE0F901F9018951F920F920FB60F9226
:100A500011240BB60F922F933F934F935F936F9395
:100A60007F938F939F93AF93BF93EF93FF9348E24E
:100A700051E064E271E080E090E00E94B103FF91F8
:100A8000EF91BF91AF919F918F917F916F915F9106
:100A90004F913F912F910F900BBE0F900FBE0F9073
:100AA0001F9018951F920F920FB60F9211240BB63C
:100AB0000F922F933F934F935F936F937F938F93F7
:100AC0009F93AF93BF93EF93FF9348EA50E064EA9C
:100AD00070E083E090E00E94B103FF91EF91BF913D
:100AE000AF919F918F917F916F915F914F913F91C6
:100AF0002F910F900BBE0F900FBE0F901F90189567
:100B00001F920F920FB60F9211240BB60F922F93D4
:100B10003F934F935F936F937F938F939F93AF9385
:100B2000BF93EF93FF9348E950E064E970E082E0FF
:100B300090E00E94B103FF91EF91BF91AF919F911F
:100B40008F917F916F915F914F913F912F910F9076
:100B50000BBE0F900FBE0F901F9018951F920F9213
:100B60000FB60F9211240BB60F922F933F934F9312
:100B70005F936F937F938F939F93AF93BF93EF9305
:100B8000FF9348E850E064E870E081E090E00E9464
:100B9000B103FF91EF91BF91AF919F918F917F91A1
:100BA0006F915F914F913F912F910F900BBE0F90DE
:100BB0000FBE0F901F9018951092220210922102E2
:100BC00088EE93E0A0E0B0E08093230290932402AB
:100BD000A0932502B093260286E092E09093200233
:100BE00080931F0285EC90E090932C0280932B025F
:100BF00084EC90E090932E0280932D0280EC90E0A4
:100C00009093300280932F0281EC90E09093320217
:100C10008093310282EC90E090933402809333020F
:100C200086EC90E090933602809335021092380261
:100C30001092390210923A0210923B0280914C03BA
:100C40008033A0F491E0980F90934C0380934D0370
:100C500090E0FC01EE0FFF1F8E0F9F1FFC01E4547C
:100C6000FD4F88EB9BE09283818308958FEF809303
:100C70004D030895CF93DF9300D01F92CDB7DEB719
:100C8000789484B5826084BD84B5816084BD85B567
:100C9000826085BD85B5816085BD80916E00816073
:100CA00080936E0010928100809181008260809319
:100CB000810080918100816080938100809180001B
:100CC0008160809380008091B10084608093B10046
:100CD0008091B00081608093B0008091910082602B
:100CE0008093910080919100816080939100809128
:100CF00090008160809390008091A1008260809339
:100D0000A1008091A10081608093A1008091A0004A
:100D100081608093A00080912101826080932101F5
:100D20008091210181608093210180912001816067
:100D30008093200180917A00846080937A00809172
:100D40007A00826080937A0080917A00816080933B
:100D50007A0080917A00806880937A001092C100B6
:100D600080914D03803308F069C0EBEEF1E02491EF
:100D7000E5EAF1E08491882399F090E0880F991FCB
:100D8000FC01E859FE4FA591B491FC01EE57FE4FCE
:100D9000859194918FB7F894EC91E22BEC938FBFEF
:100DA00080914D03E82FF0E09F01220F331FE20FE7
:100DB000F31FE454FD4F9081907C996090831092D2
:100DC0004E0310924F036CE00E944C082CE0829F6F
:100DD000B001112440E050E09A01260F371FF901BD
:100DE000EE0FFF1F2E0F3F1FF901E454FD4F9081BE
:100DF00096FD17C04F5F5F4F4C30510569F781304A
:100E000009F0E2C01092800082E08093810010928D
:100E1000850010928400B19A80916F008260809367
:100E20006F00E0914D03F0E0CF01880F991FE80FAC
:100E3000F91FE454FD4F80818064808380ED97E04A
:100E40000E94B1010E9466024B015C0188E8C82E35
:100E500083E1D82EE12CF12C0E946602DC01CB014B
:100E600088199909AA09BB09883E9340A105B105D3
:100E700058F081E0C81AD108E108F10898EE890E0F
:100E800093E0991EA11CB11CC114D104E104F1042A
:100E900019F7E0912F02F091300282E08083E09117
:100EA0002B02F0912C021082E0912D02F0912E0283
:100EB0008FEC808310923702E0913302F09134027C
:100EC00086E08083E0913102F0913202808180617E
:100ED0008083E0913102F0913202808188608083CA
:100EE000E0913102F0913202808180688083E0914C
:100EF0003102F091320280818F7D80838AE090E020
:100F0000A0E0B0E08093230290932402A0932502F6
:100F1000B09326028FE192E00E94D80218161906BB
:100F20000CF04FC00E946B01FC0197FD11C08D3287
:100F3000910591F0C0970A9778F0E0911F02F09127
:100F400020020680F781E02D8FE192E01995EACF2B
:100F500080E090E0DC012DC020E030E0A90110E04D
:100F6000E130F10509F05CC0E0911F02F091200230
:100F70000680F781E02D8FE192E029833A834B834D
:100F80005C8319950E946B01FC01C09729813A810D
:100F90004B815C810A9720F3E130F10509F31123BD
:100FA00009F45DC088279927DC01821B930BA40BF1
:100FB000B50B9093010280930002009711F00E94FC
:100FC000B1010E947803A6CF823061F410929000A4
:100FD00080939100109295001092940088BB8093AA
:100FE00071001FCF833069F41092A00082E08093DB
:100FF000A1001092A5001092A40089BB80937200FA
:1010000010CF81110ECF1092200182E08093210138
:1010100010922501109224018ABB8093730001CFA6
:10102000ED32F105D1F0CF01C0970A9708F09CCFBF
:10103000AAE0B0E00E9432086F01FF0FEE08FF083F
:10104000DC01CB018C0D9D1DAE1DBF1D9C01AD01B2
:10105000205331094109510987CF11E085CFDA01C9
:10106000C901A7CF0E943D08A59F900DB49F900D88
:10107000A49F800D911D11240895A29FB001B39FDC
:10108000C001A39F700D811D1124911DB29F700D91
:10109000811D1124911D0895991B79E004C0991FA9
:1010A000961708F0961B881F7A95C9F780950895C2
:1010B000EE0FFF1F881F8BBF0790F691E02D19944C
:0E10C00081E090E0F8940C946508F894FFCF5E
:1010CE00E803000000000F038B02D802B602CA022A
:0210DE005603B7
:00000001FF
