:100000000C9438010C9469010C9469010C946901F9
:100010000C9469010C9469010C9469010C946901B8
:100020000C9469010C9469010C9469010C946901A8
:100030000C9469010C9469010C9469010C94690198
:100040000C9469010C94A0050C9469010C9469014D
:100050000C9469010C9469010C9469010C946C0472
:100060000C9469010C94E0040C94B6040C9469019E
:100070000C9469010C9469010C9469010C94690158
:100080000C9472050C9469010C9469010C9469013B
:100090000C9469010C9469010C9469010C94690138
:1000A0000C9469010C9469010C9444050C94690149
:1000B0000C9469010C9469010C9469010C94160567
:1000C0000C9469010C9469010C9469010C94690108
:1000D0000C9469010C9469010C9469010C946901F8
:1000E0000C946901D201D501C401C801CC010C02F4
:1000F000D901DD01E301E701EB01F101F501F901AE
:100100000C02FF01030207020C94CA020C94DD01E9
:100110000C94F5010C94E7010C94E3010C94F101AB
:100120000C94CC010C9448030C94CE050C9407025B
:100130000C947D020C940C020C94C8010C94C40124
:100140000C94A8020C9403020C94FF010C94BC02C2
:100150000C94D9010C94EB010C94F9010C94D50189
:100160000C9401030C94D20100002100240027000C
:100170002A002D00300033000101000004010701B6
:100180000A0100002200250028002B002E0031006B
:10019000340002010000050108010B0105050505F9
:1001A000070508080808020202020A0A08080404EF
:1001B000040401010101010101010303030303031D
:1001C0000303040707070C0C0C0C0C0C0C0C0202AC
:1001D000020206060606060606060B0B0B0B0B0BA9
:1001E0000B0B010210202008081020401020408036
:1001F00002010201080402010102040810204080EB
:100200008040201008040201800402018040201078
:1002100008040201080402010102040810204080C1
:10022000010204081020408000000A0B02090C0D96
:100230000E08070304010000000000000000000099
:1002400000000000000000000000000000000000AE
:10025000000000001211100000000000000000006B
:100260000000000000000000000000000000CE05BB
:1002700011241FBECFEFD1E2DEBFCDBF00E00CBF27
:1002800012E0A0E0B2E0E6E4FFE000E00BBF02C055
:1002900007900D92A031B107D9F723E0A0E1B2E0B9
:1002A00001C01D92AE34B207E1F711E0C8E3D1E01E
:1002B00000E006C021970109802FFE010E949407EB
:1002C000C733D10780E00807A9F70E942C060C94D9
:1002D000A1070C940000AC0190914B03903390F572
:1002E00080914C0328E830E0281B310987FD3395C5
:1002F000220F331F220F331F4217530784F08091C0
:100300004D0328E532E0281B310987FD3395220F84
:10031000331F220F331F421753070CF49A01225048
:100320003109220F331F4FB7F894892F90E0FC0159
:10033000EE0FFF1F8E0F9F1FFC01E654FD4F32830F
:1003400021834FBF0895362F90E0FC01E85DFD4FFB
:100350004491FC01EE51FE4F2491FC01E456FE4F06
:100360009491992309F46BC0442309F455C050E0DB
:10037000FA013197E231F10508F04EC08827EE58B6
:10038000FF4F8F4F0C949407809180008F7707C0A8
:10039000809180008F7D03C080918000877F809353
:1003A00080003AC084B58F7702C084B58F7D84BD4C
:1003B00033C08091B0008F7703C08091B0008F7DF3
:1003C0008093B00029C0809190008F7707C0809102
:1003D00090008F7D03C080919000877F8093900074
:1003E0001BC08091A0008F7707C08091A0008F7DF7
:1003F00003C08091A000877F8093A0000DC08091F2
:1004000020018F7707C0809120018F7D03C08091EC
:100410002001877F80932001E92FF0E0EE0FFF1F7E
:10042000EE57FE4FA591B4918FB7F894EC9131112E
:1004300003C020952E2301C02E2B2C938FBF08952F
:100440003FB7F8948091190290911A02A0911B0273
:10045000B0911C0226B5A89B05C02F3F19F001964C
:10046000A11DB11D3FBFBA2FA92F982F8827820F3A
:10047000911DA11DB11DBC01CD0142E0660F771F8A
:10048000881F991F4A95D1F708958F929F92AF9236
:10049000BF92CF92DF92EF92FF920E9420024B0117
:1004A0005C0180EDC82E87E0D82EE12CF12C0E9453
:1004B0002002DC01CB0188199909AA09BB09883EF1
:1004C0009340A105B10558F021E0C21AD108E10816
:1004D000F10888EE880E83E0981EA11CB11CC1149F
:1004E000D104E104F10419F7FF90EF90DF90CF9071
:1004F000BF90AF909F908F900895CF92DF92EF9230
:10050000FF920F931F93CF93DF936C017A018B01BE
:10051000C0E0D0E0CE15DF0589F0D8016D918D01E6
:10052000D601ED91FC910190F081E02DC601199565
:10053000892B11F47E0102C02196ECCFC701DF9117
:10054000CF911F910F91FF90EF90DF90CF90089582
:10055000FC01918D828D981761F0828DDF01A80FCB
:10056000B11D5D968C91928D9F5F9F73928F90E0ED
:1005700008958FEF9FEF0895FC01918D828D98175C
:1005800031F0828DE80FF11D858D90E008958FEF99
:100590009FEF0895FC01918D228D892F90E0805C62
:1005A0009F4F821B91098F73992708958DE192E0E7
:1005B0000E94CA0221E0892B09F420E0822F0895CD
:1005C000FC01848DDF01A80FB11DA35ABF4F2C91F0
:1005D000848D90E001968F739927848FA689B789BF
:1005E0002C93A089B1898C9180648C93938D848D98
:1005F000981306C00288F389E02D80818F7D808367
:100600000895EF92FF920F931F93CF93DF93EC0126
:1006100081E0888F9B8D8C8D981305C0E889F989BE
:10062000808185FD24C0F62E0B8D10E00F5F1F4FDB
:100630000F731127E02E8C8DE8120CC00FB607FC4B
:10064000FACFE889F989808185FFF5CFCE010E9434
:10065000E002F1CF8B8DFE01E80FF11DE35AFF4F51
:10066000F0820B8FEA89FB898081806207C0EE8966
:10067000FF896083E889F98980818064808381E0D3
:1006800090E0DF91CF911F910F91FF90EF9008952F
:10069000CF93DF93EC01888D8823C9F0EA89FB8929
:1006A000808185FD05C0A889B9898C9186FD0FC020
:1006B0000FB607FCF5CF808185FFF2CFA889B989F5
:1006C0008C9185FFEDCFCE010E94E002E7CFDF9154
:1006D000CF91089580E090E0892B21F00E94D6020E
:1006E000811125C080E090E0892B41F080E090E00E
:1006F000892B21F00E94000081111CC080E090E055
:10070000892B41F080E090E0892B21F00E940000CD
:10071000811113C080E090E0892BA1F080E090E08F
:10072000892B81F00E94000081110AC008950E9467
:100730000000D8CF0E940000E1CF0E940000EACF65
:100740000C9400000895CF92DF92EF92FF920F93E6
:100750001F93CF93DF936C018B017A01EC01C05F93
:10076000DD4F888187FF04C0FB011182108224C005
:100770008CE08C9D90018D9D300D11248881A90104
:10078000480F511D87FD5A9580914A0390E0481704
:10079000590794F48881A901480F511D87FD5A9586
:1007A000CA01FA01EE0FFF1F8E0F9F1FFC01E654D6
:1007B000FD4F808186FD19C088818F5F88838CE022
:1007C0008C9D90018D9D300D11248881A901480FC9
:1007D000511D87FD5A9580914A0390E048175907AB
:1007E000BCF488818C3044F113C08881280F311DFE
:1007F00087FD3A95F901EE0FFF1F2E0F3F1FF901FC
:10080000E654FD4F808160E08F730E94A301D4CF36
:10081000F80180819181049680349C4918F480E429
:100820009CE904C0F801808191810496F7019183CD
:1008300080838FEF888345C0F80140815181888192
:10084000B901680F711D87FD7A95CB01FB01EE0F91
:10085000FF1F8E0F9F1FFC01E654FD4F8181928187
:10086000840F951FF701918380838881A901480F28
:10087000511D87FD5A95CA01FA01EE0FFF1F8E0F19
:100880009F1FFC01E654FD4F808186FF1AC08881BE
:10089000280F311D87FD3A95F901EE0FFF1F2E0F2E
:1008A0003F1FF901E654FD4F808161E08F73DF91B6
:1008B000CF911F910F91FF90EF90DF90CF900C940C
:1008C000A301DF91CF911F910F91FF90EF90DF90E7
:1008D000CF9008950E949C071F920F920FB60F921F
:1008E00011242F933F938F939F93AF93BF93809146
:1008F000150290911602A0911702B0911802309142
:10090000140223E0230F2D3720F40196A11DB11D01
:1009100005C026E8230F0296A11DB11D20931402E5
:100920008093150290931602A0931702B0931802B9
:100930008091190290911A02A0911B02B0911C02A1
:100940000196A11DB11D8093190290931A02A093E4
:100950001B02B0931C02BF91AF919F918F913F9169
:100960002F910F900FBE0F901F9018951F920F920E
:100970000FB60F9211240BB60F922F933F934F9304
:100980005F936F937F938F939F93AF93BF93EF93F7
:10099000FF938DE192E00E94E002FF91EF91BF9101
:1009A000AF919F918F917F916F915F914F913F9107
:1009B0002F910F900BBE0F900FBE0F901F901895A8
:1009C0001F920F920FB60F9211240BB60F922F9316
:1009D0008F939F93EF93FF93E0912D02F0912E025E
:1009E0008081E0913302F091340282FD12C0908147
:1009F000809136028F5F8F7320913702821751F0FA
:100A0000E0913602F0E0E35EFD4F958F8093360271
:100A100001C08081FF91EF919F918F912F910F9055
:100A20000BBE0F900FBE0F901F9018951F920F9244
:100A30000FB60F9211240BB60F922F933F934F9343
:100A40005F936F937F938F939F93AF93BF93EF9336
:100A5000FF9348E251E064E271E080E090E00E94A0
:100A6000A303FF91EF91BF91AF919F918F917F91E0
:100A70006F915F914F913F912F910F900BBE0F900F
:100A80000FBE0F901F9018951F920F920FB60F92E6
:100A900011240BB60F922F933F934F935F936F9355
:100AA0007F938F939F93AF93BF93EF93FF9348EA06
:100AB00050E064EA70E083E090E00E94A303FF91BD
:100AC000EF91BF91AF919F918F917F916F915F91C6
:100AD0004F913F912F910F900BBE0F900FBE0F9033
:100AE0001F9018951F920F920FB60F9211240BB6FC
:100AF0000F922F933F934F935F936F937F938F93B7
:100B00009F93AF93BF93EF93FF9348E950E064E95D
:100B100070E082E090E00E94A303FF91EF91BF910B
:100B2000AF919F918F917F916F915F914F913F9185
:100B30002F910F900BBE0F900FBE0F901F90189526
:100B40001F920F920FB60F9211240BB60F922F9394
:100B50003F934F935F936F937F938F939F93AF9345
:100B6000BF93EF93FF9348E850E064E870E081E0C2
:100B700090E00E94A303FF91EF91BF91AF919F91ED
:100B80008F917F916F915F914F913F912F910F9036
:100B90000BBE0F900FBE0F901F9018951092200261
:100BA00010921F0288EE93E0A0E0B0E08093210253
:100BB00090932202A0932302B093240284E092E057
:100BC00090931E0280931D0285EC90E090932A0280
:100BD0008093290284EC90E090932C0280932B0266
:100BE00080EC90E090932E0280932D0281EC90E0B7
:100BF0009093300280932F0282EC90E09093320227
:100C00008093310286EC90E090933402809333021B
:100C10001092360210923702109238021092390266
:100C200080914A038033A0F491E0980F90934A0397
:100C300080934B0390E0FC01EE0FFF1F8E0F9F1F70
:100C4000FC01E654FD4F88EB9BE09283818308957D
:100C50008FEF80934B030895789484B5826084BDB0
:100C600084B5816084BD85B5826085BD85B58160B0
:100C700085BD80916E00816080936E00109281002E
:100C800080918100826080938100809181008160E9
:100C900080938100809180008160809380008091AA
:100CA000B10084608093B1008091B0008160809336
:100CB000B0008091910082608093910080919100BA
:100CC000816080939100809190008160809390007A
:100CD0008091A10082608093A1008091A100816039
:100CE0008093A1008091A00081608093A0008091FA
:100CF0002101826080932101809121018160809394
:100D000021018091200181608093200180917A00EF
:100D1000846080937A0080917A00826080937A0068
:100D200080917A00816080937A0080917A00806857
:100D300080937A001092C10080914B03803308F0B9
:100D400069C0EBEEF1E02491E5EAF1E084918823BB
:100D500099F090E0880F991FFC01E859FE4FA5918A
:100D6000B491FC01EE57FE4F859194918FB7F894A2
:100D7000EC91E22BEC938FBF80914B03E82FF0E0D6
:100D80009F01220F331FE20FF31FE654FD4F9081A6
:100D9000907C9960908310924C0310924D036CE00C
:100DA0000E9488079CE0899FB001112440E050E038
:100DB0009A01260F371FF901EE0FFF1F2E0F3F1F5D
:100DC000F901E654FD4F908196FD17C04F5F5F4FCC
:100DD0004C30510569F7813009F06EC010928000E7
:100DE00082E0809381001092850010928400B19A75
:100DF00080916F00826080936F00E0914B03F0E080
:100E0000CF01880F991FE80FF91FE654FD4F80812D
:100E10008064808380ED97E00E946B01E0912D0259
:100E2000F0912E0282E08083E0912902F0912A0263
:100E30001082E0912B02F0912C028FEC80831092B3
:100E40003502E0913102F091320286E08083E09138
:100E50002F02F0913002808180618083E0912F0227
:100E6000F0913002808188608083E0912F02F091C0
:100E70003002808180688083E0912F02F0913002FF
:100E800080818F7D808380EB94E00E946B010E94C3
:100E9000450288E795E00E946B010E9445028CEDB7
:100EA00095E00E946B010E94450286EC97E00E944B
:100EB0006B010E946A03E7CF823061F410929000C8
:100EC00080939100109295001092940088BB8093BB
:100ED000710093CF833069F41092A00082E0809378
:100EE000A1001092A5001092A40089BB809372000B
:100EF00084CF811182CF1092200182E08093210162
:100F000010922501109224018ABB8093730075CF43
:100F1000991B79E004C0991F961708F0961B881F4B
:100F20007A95C9F780950895EE0FFF1F881F8BBF34
:100F30000790F691E02D199481E090E0F8940C94DC
:060F4000A107F894FFCFA9
:100F46000000000001037D02CA02A802BC02480399
:00000001FF
