:100000000C9445010C9476010C9476010C947601C5
:100010000C9476010C9476010C9476010C94760184
:100020000C9476010C9476010C9476010C94760174
:100030000C9476010C9457040C9476010C94760180
:100040000C9476010C9476010C9476010C94760154
:100050000C9476010C9476010C9476010C94AD030B
:100060000C9476010C9421040C94F7030C94760103
:100070000C9476010C9476010C9476010C94760124
:100080000C9476010C9476010C9476010C94760114
:100090000C9476010C9476010C9476010C94760104
:1000A0000C9476010C9476010C9476010C947601F4
:1000B0000C9476010C9476010C9476010C947601E4
:1000C0000C9476010C9476010C9476010C947601D4
:1000D0000C9476010C9476010C9476010C947601C4
:1000E0000C947601C601C901B801BC01C00100022F
:1000F000CD01D101D701DB01DF01E501E901ED010E
:100100000002F301F701FB010C94F7010C949E022D
:100110000C94B2020C94F7020C94DF010C94CD0104
:100120000C94E5010C94D7010C94C9010C94820441
:100130000C94D1010C94C6010C94F3010C940002B0
:100140000C943E030C94DB010C94C0020C94ED0162
:100150000C94C0010C94BC010C9473020C94B80173
:100160000C94FB010C94E90100000A0B02090C0D30
:100170000E0807030401000000000000000000005A
:10018000000000000000000000000000000000006F
:10019000000000001211100000000000000000002C
:1001A000000000000000000000000000000000004F
:1001B0002100240027002A002D0030003300010117
:1001C0000000040107010A010000200023002600AE
:1001D00029002C002F00320000010000030106015D
:1001E000090100002200250028002B002E0031000C
:1001F000340002010000050108010B010505050599
:10020000070508080808020202020A0A080804048E
:1002100004040101010101010101030303030303BC
:100220000303040707070C0C0C0C0C0C0C0C02024B
:10023000020206060606060606060B0B0B0B0B0B48
:100240000B0B0102102020080810204010204080D5
:10025000020102010804020101020408102040808A
:100260008040201008040201800402018040201018
:100270000804020108040201010204081020408061
:100280000102040810204080820411241FBECFEF19
:10029000D1E2DEBFCDBF00E00CBF12E0A0E0B2E0D3
:1002A000EAE6FFE000E00BBF02C007900D92A23229
:1002B000B107D9F722E0A2E2B2E001C01D92A03E50
:1002C000B207E1F711E0C5E4D1E000E006C02197F4
:1002D0000109802FFE010E949207C434D10780E0FB
:1002E0000807A9F70E94EF040C94B3070C940000D0
:1002F00090E0FC01EE5BFD4F2491FC01E450FE4FC9
:100300008491882399F090E0880F991FFC01E255B1
:10031000FE4FA591B491FC01EE51FE4F8591949151
:100320008FB7F894EC91E22BEC938FBF0895362FA2
:1003300090E0FC01E859FE4F4491FC01EE5BFD4F5B
:100340002491FC01E450FE4F9491992309F46BC071
:10035000442309F455C050E0FA013197E231F10528
:1003600008F04EC08827EE58FF4F8F4F0C9492072D
:10037000809180008F7707C0809180008F7D03C0BF
:1003800080918000877F809380003AC084B58F770A
:1003900002C084B58F7D84BD33C08091B0008F775B
:1003A00003C08091B0008F7D8093B00029C0809100
:1003B00090008F7707C0809190008F7D03C080915F
:1003C0009000877F809390001BC08091A0008F7762
:1003D00007C08091A0008F7D03C08091A000877F1F
:1003E0008093A0000DC0809120018F7707C080917D
:1003F00020018F7D03C080912001877F80932001A1
:10040000E92FF0E0EE0FFF1FEE51FE4FA591B491E2
:100410008FB7F894EC91311103C020952E2301C0C1
:100420002E2B2C938FBF08953FB7F89480912D0207
:1004300090912E02A0912F02B091300226B5A89B78
:1004400005C02F3F19F00196A11DB11D3FBFBA2F66
:10045000A92F982F8827820F911DA11DB11DBC01C6
:10046000CD0142E0660F771F881F991F4A95D1F78B
:1004700008958F929F92AF92BF92CF92DF92EF92A8
:10048000FF926B017C010E9414024B015C01C114BC
:10049000D104E104F104F1F00E941402DC01CB016B
:1004A00088199909AA09BB09883E9340A105B1059D
:1004B00070F321E0C21AD108E108F10888EE880E35
:1004C00083E0981EA11CB11CC114D104E104F10405
:1004D00019F7DDCFFF90EF90DF90CF90BF90AF90F6
:1004E0009F908F900895CF92DF92EF92FF920F939B
:1004F0001F93CF93DF936C017A018B01C0E0D0E0B2
:10050000CE15DF0589F0D8016D918D01D601ED91F1
:10051000FC910190F081E02DC6011995892B11F411
:100520007E0102C02196ECCFC701DF91CF911F91D0
:100530000F91FF90EF90DF90CF900895FC01918D87
:10054000828D981761F0828DDF01A80FB11D5D9635
:100550008C91928D9F5F9F73928F90E008958FEFA3
:100560009FEF0895FC01918D828D981731F0828D57
:10057000E80FF11D858D90E008958FEF9FEF0895AE
:10058000FC01918D228D892F90E0805C9F4F821B12
:1005900091098F739927089581E392E00E94C00228
:1005A00021E0892B09F420E0822F0895FC01848D3D
:1005B000DF01A80FB11DA35ABF4F2C91848D90E08D
:1005C00001968F739927848FA689B7892C93A08968
:1005D000B1898C9180648C93938D848D981306C01F
:1005E0000288F389E02D80818F7D80830895EF92CA
:1005F000FF920F931F93CF93DF93EC0181E0888FDD
:100600009B8D8C8D981305C0E889F989808185FDC3
:1006100024C0F62E0B8D10E00F5F1F4F0F731127B4
:10062000E02E8C8DE8120CC00FB607FCFACFE889DB
:10063000F989808185FFF5CFCE010E94D602F1CFE6
:100640008B8DFE01E80FF11DE35AFF4FF0820B8FF7
:10065000EA89FB898081806207C0EE89FF89608317
:10066000E889F98980818064808381E090E0DF916E
:10067000CF911F910F91FF90EF900895CF93DF934B
:10068000EC01888D8823C9F0EA89FB89808185FD8A
:1006900005C0A889B9898C9186FD0FC00FB607FCEB
:1006A000F5CF808185FFF2CFA889B9898C9185FF2C
:1006B000EDCFCE010E94D602E7CFDF91CF91089512
:1006C00080E090E0892B21F00E94CC02811125C0AE
:1006D00080E090E0892B41F080E090E0892B21F0D0
:1006E0000E94000081111CC080E090E0892B41F045
:1006F00080E090E0892B21F00E940000811113C05E
:1007000080E090E0892BA1F080E090E0892B81F0DF
:100710000E94000081110AC008950E940000D8CFF5
:100720000E940000E1CF0E940000EACF0C9400007C
:100730000895009769F0FC0101900020E9F73197D6
:10074000AF01481B590BBC0181E392E00C9473028A
:1007500080E090E008950E94AE071F920F920FB6BE
:100760000F9211242F933F938F939F93AF93BF9337
:100770008091290290912A02A0912B02B0912C0223
:100780003091280223E0230F2D3720F40196A11D7C
:10079000B11D05C026E8230F0296A11DB11D2093AF
:1007A00028028093290290932A02A0932B02B093EF
:1007B0002C0280912D0290912E02A0912F02B091D7
:1007C00030020196A11DB11D80932D0290932E023F
:1007D000A0932F02B0933002BF91AF919F918F9160
:1007E0003F912F910F900FBE0F901F9018951F9261
:1007F0000F920FB60F9211240BB60F922F933F93C7
:100800004F935F936F937F938F939F93AF93BF9318
:10081000EF93FF9381E392E00E94D602FF91EF9164
:10082000BF91AF919F918F917F916F915F914F9108
:100830003F912F910F900BBE0F900FBE0F901F9006
:1008400018951F920F920FB60F9211240BB60F92AC
:100850002F938F939F93EF93FF93E0914102F09139
:1008600042028081E0914702F091480282FD12C06D
:10087000908180914A028F5F8F7320914B02821783
:1008800051F0E0914A02F0E0EF5CFD4F958F8093CC
:100890004A0201C08081FF91EF919F918F912F912A
:1008A0000F900BBE0F900FBE0F901F9018951F92C8
:1008B0000F920FB60F9211240BB60F922F933F9306
:1008C0004F935F936F937F938F939F93AF93BF9358
:1008D000EF93FF93E0912602F09127021995FF9183
:1008E000EF91BF91AF919F918F917F916F915F91A8
:1008F0004F913F912F910F900BBE0F900FBE0F9015
:100900001F901895E1E3F2E01382128288EE93E0E3
:10091000A0E0B0E084839583A683B78384E092E06F
:100920009183808385EC90E09587848784EC90E0C8
:100930009787868780EC90E0918B808B81EC90E0AC
:10094000938B828B82EC90E0958B848B86EC90E08D
:10095000978B868B118E128E138E148EE6E4F2E046
:10096000E491AEECB2E01496EC931497E5E4F2E077
:10097000E4911596EC93159780E092E0FC012491A8
:10098000E22FF0E0EE0FFF1FEE51FE4F2591349164
:1009900017963C932E931697EFEFF1E0E491F0E079
:1009A000EE0FFF1FE853FE4F2591349119963C93AB
:1009B0002E931897FC018491E82FF0E0EE0FFF1FB3
:1009C000E255FE4F859194911B969C938E931A97B6
:1009D0008BE694E61D969C938E931C970895CF9377
:1009E000DF93CDB7DEB7A1970FB6F894DEBF0FBE89
:1009F000CDBF789484B5826084BD84B5816084BDA8
:100A000085B5826085BD85B5816085BD80916E00AC
:100A1000816080936E0010928100809181008260DD
:100A2000809381008091810081608093810080911A
:100A300080008160809380008091B1008460809309
:100A4000B1008091B00081608093B00080919100EE
:100A500082608093910080919100816080939100E9
:100A6000809190008160809390008091A1008260CD
:100A70008093A1008091A10081608093A10080916A
:100A8000A00081608093A00080912101826080930A
:100A900021018091210181608093210180912001B9
:100AA00081608093200180917A00846080937A0035
:100AB00080917A00826080937A0080917A008160D0
:100AC00080937A0080917A00806880937A001092F7
:100AD000C100E0914102F091420282E08083E09106
:100AE0003D02F0913E021082E0913F02F0914002FF
:100AF0008FEC808310924902E0914502F09146020A
:100B000086E08083E0914302F0914402808180611D
:100B10008083E0914302F091440280818860808369
:100B2000E0914302F0914402808180688083E091EB
:100B30004302F091440280818F7D80838DE00E948A
:100B4000780187E10E94780181E10E9478013AE012
:100B5000832E912CA12CB12C48EE442E43E0542E30
:100B6000612C712C6AE070E080E090E00E94390214
:100B70001A82198205E010E00E9414026B017C01C8
:100B8000E091D802F091D90290818091D202892B14
:100B90008083E091D402F091D50290818091D202BD
:100BA0008095892380838BE090E00197F1F7E091B5
:100BB000D402F091D50290818091D202892B80835A
:100BC00083E290E00197F1F7E091D402F091D50231
:100BD00090818091D202809589238083E091D80210
:100BE000F091D90290818091D202809589238083EF
:100BF000E091D602F091D70290818091D3028923AF
:100C000009F0A3C00E9414022091DA023091DB02A5
:100C100040E050E02855394E4F4F5F4FDC01CB018B
:100C2000820F931FA41FB51F8093DC029093DD02F7
:100C3000A093DE02B093DF02E091D602F091D702DA
:100C400090818091D302892381F40E941402209123
:100C5000DC023091DD024091DE025091DF02261766
:100C600037074807590740F770C00E9414022091C7
:100C7000DA023091DB02DC01CB01820F931FA11D50
:100C8000B11D8093DC029093DD02A093DE02B0934D
:100C9000DF02E091D602F091D70290818091D302D9
:100CA000892381F00E9414022091DC023091DD0240
:100CB0004091DE025091DF02261737074807590797
:100CC00040F743C00E9414022091DA023091DB0207
:100CD000A901455051092091DC023091DD02FA0151
:100CE000E21BF30B6E0F7F1F6115710571F111117E
:100CF00002C080E020C0812F282F30E0F901319719
:100D0000EE0FFF1F41E050E04C0F5D1FE40FF51F99
:100D1000408151814617570770F4F901EE0FFF1F0C
:100D200021E030E02C0F3D1FE20FF31F5183408381
:100D3000815011F7DECFFE013196E80FF11DE80F6B
:100D4000F11D718360831F5F01C00150101738F5DA
:100D50000E941402DC01CB018C199D09AE09BF0968
:100D600088349147A105B10508F006CF0E9414020E
:100D7000F8E4CF0EF1E7DF1EE11CF11CA70196019C
:100D8000261B370B480B590BCA01B901A30192016D
:100D90000E947007CA01B9010E943902EDCE0E7F90
:100DA000E1E0F0E0EC0FFD1FE00FF11D008111818B
:100DB0000FB6F894DEBF0FBECDBF86E192E00E9471
:100DC0009903C80169E370E00E945C078B0177FF1B
:100DD0002BC0E0913102F09132020190F081E02DC0
:100DE0006DE281E392E01995C801012E000CAA0B77
:100DF000BB0B22273327A901281B390B4A0B5B0B9E
:100E000019A2CE0181967C01CA01B901A501940104
:100E10000E947007605DF70162937F012115310523
:100E20004105510589F718C09801012E000C440BAB
:100E3000550B19A2CE0181967C01CA01B901A50109
:100E400094010E947007605DF70162937F01211594
:100E500031054105510589F7C7010E94990380E1D9
:100E600092E00E94990383E192E00E949903033388
:100E7000110534F461E087E10E94970160E00AC047
:100E80000353110960E087E1093F110540F40E9416
:100E9000970161E08DE00E94970160E007C00E9429
:100EA000970160E08DE00E94970161E081E10E947E
:100EB00097010E94600356CE97FB072E16F400940C
:100EC00007D077FD09D00E949A0707FC05D03EF4B1
:100ED000909581959F4F0895709561957F4F0895E6
:100EE000A1E21A2EAA1BBB1BFD010DC0AA1FBB1F2E
:100EF000EE1FFF1FA217B307E407F50720F0A21BA0
:100F0000B30BE40BF50B661F771F881F991F1A940C
:100F100069F760957095809590959B01AC01BD0136
:100F2000CF010895EE0FFF1F881F8BBF0790F6912A
:100F3000E02D1994AA1BBB1B51E107C0AA1FBB1FC0
:100F4000A617B70710F0A61BB70B881F991F5A9555
:100F5000A9F780959095BC01CD01089581E090E0BE
:0A0F6000F8940C94B307F894FFCF47
:100F6A0000000000F7027302C0029E02B2023E03B2
:100F7A00636D000D0A0044697374616E6369613AB6
:020F8A00200045
:00000001FF
